:060000000A128A1110280B
:10000800FE00030EF8000408F9000A08FA007F0849
:10001800FB000A128A1124280A128A111328FC01EB
:1000280083120313A001A101A201A301A401A50148
:10003800A601A701A801A90183010A128A11402A71
:100048000B1C2728282863288312031306182D2839
:100058002E283728061C312832282E280130F60091
:1000680076088807622886183A283B284228861C82
:100078003E283F283B280130880262280619452877
:10008800462853280808F600F7017608F000770894
:10009800F1000A128A11B8220A128A1162288619F6
:1000A80056285728622888010A128A1103230A123F
:1000B8008A11700883120313880062280B108312B8
:1000C80003130C1F68286928B5280A128A111D23F2
:1000D8000A128A11710883120313A9007008A80074
:1000E8002908F1002808F0000A128A1112230A12BE
:1000F8008A11710883120313A5007008A400290847
:10010800F1002808F0000A128A11ED220A128A1159
:10011800710883120313A7007008A6002708F100CE
:100128002608F0000A128A11E7210A128A11F6003D
:10013800F701760883120313A2007708A3002508A5
:10014800F1002408F0000A128A11E7210A128A1124
:10015800F600F701760883120313A0007708A100C0
:100168000C130B1DB828B928D228091089107C084F
:10017800031DBF28C028C628FC01FC0A0914220850
:100188008700CF287C03031DCA28CB28CF28FC0171
:10019800891420088700C83081000B117B08FF00F4
:1001A8007A088A0079088400780E8300FE0E7E0E95
:1001B8000900831203131F141A3083120313AF00AC
:1001C800F730AE00AE0BE628AF0BE628EB2883121B
:1001D80003132A082B04031DF228F328F628C3303A
:1001E8009F053D292A032B04031DFB28FC28012910
:1001F8001F08C33904389F003D2902302A062B0402
:10020800031D072908290D291F08C33908389F002D
:100218003D2903302A062B04031D13291429192903
:100228001F08C3390C389F003D2904302A062B04C7
:10023800031D1F29202925291F08C33910389F00AD
:100248003D2905302A062B04031D2B292C29312989
:100258001F08C33914389F003D2906302A062B048D
:10026800031D372938293D291F08C33918389F002D
:100278003D29831603139F121F12831203132C03A5
:100288002D04031D482949294C293F309F056A2917
:1002980004302C062D04031D5229532958291F0800
:1002A8003F3940389F006A2908302C062D0403196D
:1002B8005E295F29662914302C062D04031D652943
:1002C80066296A291F083F3980389F00831603135F
:1002D8000C17831203130C13831603139F130800C0
:1002E8000830831203132A062B04031D7C297D2959
:1002F80082297030831603138F04E32904302A06F9
:100308002B04031D882989299029831603130F08B4
:100318008F3960388F00E32902302A062B04031D29
:10032800962997299E29831603130F088F39503869
:100338008F00E3292A032B04031DA329A429AB2931
:10034800831603130F088F3940388F00E329F430E0
:100358002A06031DB3292B03031DB329B429BB297E
:10036800831603130F088F3930388F00E329FA30CA
:100378002A062B04031DC129C229C9298316031380
:100388000F088F3920388F00E3297D302A062B0487
:10039800031DCF29D029D729831603130F088F39B6
:1003A80010388F00E3291F302A062B04031DDD298E
:1003B800DE29E3298F30831603138F05E32983167B
:1003C80003130F140800082A3F303F2A06303F2A3B
:1003D8005B303F2A4F303F2A66303F2A6D303F2A34
:1003E8007D303F2A07303F2A7F303F2A6F303F2A2F
:1003F80077303F2A7C303F2A39303F2A5E303F2A07
:1004080079303F2A71303F2A7108003A03190D2AC2
:10041800E8297008003A0319E829013A0319EA297A
:10042800033A0319EC29013A0319EE29073A03198B
:10043800F029013A0319F229033A0319F429013A78
:100448000319F6290F3A0319F829013A0319FA2969
:10045800033A0319FC29013A0319FE29073A03193B
:10046800002A013A0319022A033A0319042A013A15
:100478000319062AE82908000A128A1180220A129A
:100488008A11831203139F184A2A4B2A592A1A30B1
:1004980083120313B100F730B000B00B512AB10B2F
:1004A800512A562A831203139F142908803AB00050
:1004B80080303002031D622A08082802031C652ABE
:1004C800662A6A2A831203130915452A831203131D
:1004D8002908803AB00080303002031D752A0808C8
:1004E80028020318782A792A452A83120313091146
:1004F800452A0A128A111028083083120313AA0009
:100508000030AB000A128A1174210A128A110A12E9
:100518008A11D6220A128A110A128A113F230A1254
:100528008A110A128A1138230A128A11FF300A1214
:100538008A1130230A128A110A128A1127230A12F1
:100548008A11003083120313AA00AB000830AC00F4
:100558000030AD000A128A11DD200A128A11C83053
:1005680083120313810008007108803AFF0080306D
:100578007F02031DC12A0E3070020318C42AC52A3F
:10058800D12A7008F200F20DF20D831203131F082E
:100598007206C33972069F00D52AC330831203132B
:1005A8009F0508000330831603178800890103306C
:1005B8008316031385000F3086008701880189019F
:1005C80083120313850186018701880101308900A0
:1005D80008007108F3007008F2000430FF00730D82
:1005E800F30CF20CFF0BF32A0F307205F400003005
:1005F8007305F5007508F1007408F000080083120F
:1006080003131F0CF200720C0F39F4007408F20087
:10061800F3017208F0007308F10008000F3070054C
:10062800F20000307105F3007308F1007208F00061
:100638000800831203131E08F200F3017208F00089
:100648007308F10008008316031381120112811147
:10065800011581140114080083120313AA002A0843
:1006680083160313960008008B170B178B158B1630
:100678000B110B100800831603138113FF3095002C
:02068800080068
:08400000FF3FFF3FFF3FFF3FC0
:04400E00D420FF3F7C
:00000001FF
